{
  "_format": "hh-sol-artifact-1",
  "contractName": "NFTMarketplace",
  "sourceName": "contracts/NFTMarketplace.sol",
  "abi": [
    {
      "inputs": [],
      "stateMutability": "nonpayable",
      "type": "constructor"
    },
    {
      "anonymous": false,
      "inputs": [
        {
          "indexed": true,
          "internalType": "address",
          "name": "owner",
          "type": "address"
        },
        {
          "indexed": true,
          "internalType": "address",
          "name": "approved",
          "type": "address"
        },
        {
          "indexed": true,
          "internalType": "uint256",
          "name": "tokenId",
          "type": "uint256"
        }
      ],
      "name": "Approval",
      "type": "event"
    },
    {
      "anonymous": false,
      "inputs": [
        {
          "indexed": true,
          "internalType": "address",
          "name": "owner",
          "type": "address"
        },
        {
          "indexed": true,
          "internalType": "address",
          "name": "operator",
          "type": "address"
        },
        {
          "indexed": false,
          "internalType": "bool",
          "name": "approved",
          "type": "bool"
        }
      ],
      "name": "ApprovalForAll",
      "type": "event"
    },
    {
      "anonymous": false,
      "inputs": [
        {
          "indexed": false,
          "internalType": "uint256",
          "name": "_fromTokenId",
          "type": "uint256"
        },
        {
          "indexed": false,
          "internalType": "uint256",
          "name": "_toTokenId",
          "type": "uint256"
        }
      ],
      "name": "BatchMetadataUpdate",
      "type": "event"
    },
    {
      "anonymous": false,
      "inputs": [
        {
          "indexed": false,
          "internalType": "uint256",
          "name": "_tokenId",
          "type": "uint256"
        }
      ],
      "name": "MetadataUpdate",
      "type": "event"
    },
    {
      "anonymous": false,
      "inputs": [
        {
          "indexed": true,
          "internalType": "uint256",
          "name": "tokenId",
          "type": "uint256"
        },
        {
          "indexed": false,
          "internalType": "address",
          "name": "seller",
          "type": "address"
        },
        {
          "indexed": false,
          "internalType": "address",
          "name": "owner",
          "type": "address"
        },
        {
          "indexed": false,
          "internalType": "uint256",
          "name": "price",
          "type": "uint256"
        }
      ],
      "name": "ResaleCreated",
      "type": "event"
    },
    {
      "anonymous": false,
      "inputs": [
        {
          "indexed": true,
          "internalType": "uint256",
          "name": "tokenId",
          "type": "uint256"
        },
        {
          "indexed": false,
          "internalType": "address",
          "name": "seller",
          "type": "address"
        },
        {
          "indexed": false,
          "internalType": "address",
          "name": "owner",
          "type": "address"
        },
        {
          "indexed": false,
          "internalType": "uint256",
          "name": "price",
          "type": "uint256"
        }
      ],
      "name": "TokenCreated",
      "type": "event"
    },
    {
      "anonymous": false,
      "inputs": [
        {
          "indexed": true,
          "internalType": "uint256",
          "name": "tokenId",
          "type": "uint256"
        },
        {
          "indexed": false,
          "internalType": "address",
          "name": "seller",
          "type": "address"
        },
        {
          "indexed": false,
          "internalType": "address",
          "name": "owner",
          "type": "address"
        },
        {
          "indexed": false,
          "internalType": "uint256",
          "name": "price",
          "type": "uint256"
        }
      ],
      "name": "TokenSold",
      "type": "event"
    },
    {
      "anonymous": false,
      "inputs": [
        {
          "indexed": true,
          "internalType": "address",
          "name": "from",
          "type": "address"
        },
        {
          "indexed": true,
          "internalType": "address",
          "name": "to",
          "type": "address"
        },
        {
          "indexed": true,
          "internalType": "uint256",
          "name": "tokenId",
          "type": "uint256"
        }
      ],
      "name": "Transfer",
      "type": "event"
    },
    {
      "inputs": [],
      "name": "_itemsSold",
      "outputs": [
        {
          "internalType": "uint256",
          "name": "",
          "type": "uint256"
        }
      ],
      "stateMutability": "view",
      "type": "function"
    },
    {
      "inputs": [],
      "name": "_listingPrice",
      "outputs": [
        {
          "internalType": "uint256",
          "name": "",
          "type": "uint256"
        }
      ],
      "stateMutability": "view",
      "type": "function"
    },
    {
      "inputs": [],
      "name": "_tokenIds",
      "outputs": [
        {
          "internalType": "uint256",
          "name": "",
          "type": "uint256"
        }
      ],
      "stateMutability": "view",
      "type": "function"
    },
    {
      "inputs": [
        {
          "internalType": "address",
          "name": "to",
          "type": "address"
        },
        {
          "internalType": "uint256",
          "name": "tokenId",
          "type": "uint256"
        }
      ],
      "name": "approve",
      "outputs": [],
      "stateMutability": "nonpayable",
      "type": "function"
    },
    {
      "inputs": [
        {
          "internalType": "address",
          "name": "owner",
          "type": "address"
        }
      ],
      "name": "balanceOf",
      "outputs": [
        {
          "internalType": "uint256",
          "name": "",
          "type": "uint256"
        }
      ],
      "stateMutability": "view",
      "type": "function"
    },
    {
      "inputs": [
        {
          "internalType": "uint256",
          "name": "tokenId",
          "type": "uint256"
        }
      ],
      "name": "buyToken",
      "outputs": [],
      "stateMutability": "payable",
      "type": "function"
    },
    {
      "inputs": [
        {
          "internalType": "string",
          "name": "tokenURI_",
          "type": "string"
        },
        {
          "internalType": "uint256",
          "name": "price",
          "type": "uint256"
        }
      ],
      "name": "createToken",
      "outputs": [
        {
          "internalType": "uint256",
          "name": "",
          "type": "uint256"
        }
      ],
      "stateMutability": "payable",
      "type": "function"
    },
    {
      "inputs": [],
      "name": "fetchAllUnsoldTokens",
      "outputs": [
        {
          "components": [
            {
              "internalType": "uint256",
              "name": "tokenId",
              "type": "uint256"
            },
            {
              "internalType": "address payable",
              "name": "seller",
              "type": "address"
            },
            {
              "internalType": "address payable",
              "name": "owner",
              "type": "address"
            },
            {
              "internalType": "uint256",
              "name": "price",
              "type": "uint256"
            },
            {
              "internalType": "bool",
              "name": "sold",
              "type": "bool"
            }
          ],
          "internalType": "struct NFTMarketplace.Token[]",
          "name": "",
          "type": "tuple[]"
        }
      ],
      "stateMutability": "view",
      "type": "function"
    },
    {
      "inputs": [],
      "name": "fetchMyListedTokens",
      "outputs": [
        {
          "components": [
            {
              "internalType": "uint256",
              "name": "tokenId",
              "type": "uint256"
            },
            {
              "internalType": "address payable",
              "name": "seller",
              "type": "address"
            },
            {
              "internalType": "address payable",
              "name": "owner",
              "type": "address"
            },
            {
              "internalType": "uint256",
              "name": "price",
              "type": "uint256"
            },
            {
              "internalType": "bool",
              "name": "sold",
              "type": "bool"
            }
          ],
          "internalType": "struct NFTMarketplace.Token[]",
          "name": "",
          "type": "tuple[]"
        }
      ],
      "stateMutability": "view",
      "type": "function"
    },
    {
      "inputs": [],
      "name": "fetchTokensOwnedByMe",
      "outputs": [
        {
          "components": [
            {
              "internalType": "uint256",
              "name": "tokenId",
              "type": "uint256"
            },
            {
              "internalType": "address payable",
              "name": "seller",
              "type": "address"
            },
            {
              "internalType": "address payable",
              "name": "owner",
              "type": "address"
            },
            {
              "internalType": "uint256",
              "name": "price",
              "type": "uint256"
            },
            {
              "internalType": "bool",
              "name": "sold",
              "type": "bool"
            }
          ],
          "internalType": "struct NFTMarketplace.Token[]",
          "name": "",
          "type": "tuple[]"
        }
      ],
      "stateMutability": "view",
      "type": "function"
    },
    {
      "inputs": [
        {
          "internalType": "uint256",
          "name": "tokenId",
          "type": "uint256"
        }
      ],
      "name": "getApproved",
      "outputs": [
        {
          "internalType": "address",
          "name": "",
          "type": "address"
        }
      ],
      "stateMutability": "view",
      "type": "function"
    },
    {
      "inputs": [],
      "name": "getListingPrice",
      "outputs": [
        {
          "internalType": "uint256",
          "name": "",
          "type": "uint256"
        }
      ],
      "stateMutability": "view",
      "type": "function"
    },
    {
      "inputs": [
        {
          "internalType": "uint256",
          "name": "",
          "type": "uint256"
        }
      ],
      "name": "idToToken",
      "outputs": [
        {
          "internalType": "uint256",
          "name": "tokenId",
          "type": "uint256"
        },
        {
          "internalType": "address payable",
          "name": "seller",
          "type": "address"
        },
        {
          "internalType": "address payable",
          "name": "owner",
          "type": "address"
        },
        {
          "internalType": "uint256",
          "name": "price",
          "type": "uint256"
        },
        {
          "internalType": "bool",
          "name": "sold",
          "type": "bool"
        }
      ],
      "stateMutability": "view",
      "type": "function"
    },
    {
      "inputs": [
        {
          "internalType": "address",
          "name": "owner",
          "type": "address"
        },
        {
          "internalType": "address",
          "name": "operator",
          "type": "address"
        }
      ],
      "name": "isApprovedForAll",
      "outputs": [
        {
          "internalType": "bool",
          "name": "",
          "type": "bool"
        }
      ],
      "stateMutability": "view",
      "type": "function"
    },
    {
      "inputs": [],
      "name": "name",
      "outputs": [
        {
          "internalType": "string",
          "name": "",
          "type": "string"
        }
      ],
      "stateMutability": "view",
      "type": "function"
    },
    {
      "inputs": [
        {
          "internalType": "uint256",
          "name": "tokenId",
          "type": "uint256"
        }
      ],
      "name": "ownerOf",
      "outputs": [
        {
          "internalType": "address",
          "name": "",
          "type": "address"
        }
      ],
      "stateMutability": "view",
      "type": "function"
    },
    {
      "inputs": [
        {
          "internalType": "uint256",
          "name": "tokenId",
          "type": "uint256"
        },
        {
          "internalType": "uint256",
          "name": "price",
          "type": "uint256"
        }
      ],
      "name": "resellToken",
      "outputs": [],
      "stateMutability": "payable",
      "type": "function"
    },
    {
      "inputs": [
        {
          "internalType": "address",
          "name": "from",
          "type": "address"
        },
        {
          "internalType": "address",
          "name": "to",
          "type": "address"
        },
        {
          "internalType": "uint256",
          "name": "tokenId",
          "type": "uint256"
        }
      ],
      "name": "safeTransferFrom",
      "outputs": [],
      "stateMutability": "nonpayable",
      "type": "function"
    },
    {
      "inputs": [
        {
          "internalType": "address",
          "name": "from",
          "type": "address"
        },
        {
          "internalType": "address",
          "name": "to",
          "type": "address"
        },
        {
          "internalType": "uint256",
          "name": "tokenId",
          "type": "uint256"
        },
        {
          "internalType": "bytes",
          "name": "data",
          "type": "bytes"
        }
      ],
      "name": "safeTransferFrom",
      "outputs": [],
      "stateMutability": "nonpayable",
      "type": "function"
    },
    {
      "inputs": [
        {
          "internalType": "address",
          "name": "operator",
          "type": "address"
        },
        {
          "internalType": "bool",
          "name": "approved",
          "type": "bool"
        }
      ],
      "name": "setApprovalForAll",
      "outputs": [],
      "stateMutability": "nonpayable",
      "type": "function"
    },
    {
      "inputs": [
        {
          "internalType": "bytes4",
          "name": "interfaceId",
          "type": "bytes4"
        }
      ],
      "name": "supportsInterface",
      "outputs": [
        {
          "internalType": "bool",
          "name": "",
          "type": "bool"
        }
      ],
      "stateMutability": "view",
      "type": "function"
    },
    {
      "inputs": [],
      "name": "symbol",
      "outputs": [
        {
          "internalType": "string",
          "name": "",
          "type": "string"
        }
      ],
      "stateMutability": "view",
      "type": "function"
    },
    {
      "inputs": [
        {
          "internalType": "uint256",
          "name": "tokenId",
          "type": "uint256"
        }
      ],
      "name": "tokenURI",
      "outputs": [
        {
          "internalType": "string",
          "name": "",
          "type": "string"
        }
      ],
      "stateMutability": "view",
      "type": "function"
    },
    {
      "inputs": [
        {
          "internalType": "address",
          "name": "from",
          "type": "address"
        },
        {
          "internalType": "address",
          "name": "to",
          "type": "address"
        },
        {
          "internalType": "uint256",
          "name": "tokenId",
          "type": "uint256"
        }
      ],
      "name": "transferFrom",
      "outputs": [],
      "stateMutability": "nonpayable",
      "type": "function"
    },
    {
      "inputs": [
        {
          "internalType": "uint256",
          "name": "listingPrice",
          "type": "uint256"
        }
      ],
      "name": "updateListingPrice",
      "outputs": [],
      "stateMutability": "nonpayable",
      "type": "function"
    }
  ],
  "bytecode": "0x60806040523480156200001157600080fd5b506040518060400160405280600e81526020016d4e46544d61726b6574506c61636560901b815250604051806040016040528060048152602001634e46544d60e01b815250816000908162000067919062000142565b50600162000076828262000142565b505067016345785d8a000060095550600a80546001600160a01b031916331790556200020e565b634e487b7160e01b600052604160045260246000fd5b600181811c90821680620000c857607f821691505b602082108103620000e957634e487b7160e01b600052602260045260246000fd5b50919050565b601f8211156200013d57600081815260208120601f850160051c81016020861015620001185750805b601f850160051c820191505b81811015620001395782815560010162000124565b5050505b505050565b81516001600160401b038111156200015e576200015e6200009d565b62000176816200016f8454620000b3565b84620000ef565b602080601f831160018114620001ae5760008415620001955750858301515b600019600386901b1c1916600185901b17855562000139565b600085815260208120601f198616915b82811015620001df57888601518255948401946001909101908401620001be565b5085821015620001fe5787850151600019600388901b60f8161c191681555b5050505050600190811b01905550565b6123a0806200021e6000396000f3fe6080604052600436106101665760003560e01c806370a08231116100d1578063ae677aa31161008a578063d93f8cda11610064578063d93f8cda146103ef578063e219fc7514610404578063e985e9c514610417578063f5c6b96b1461046057600080fd5b8063ae677aa31461038f578063b88d4fde146103af578063c87b56dd146103cf57600080fd5b806370a08231146102fb57806372b3b6201461031b57806387506a0d1461032e57806395d89b4114610344578063a22cb46514610359578063aa46a4001461037957600080fd5b806323d6161b1161012357806323d6161b1461025b5780632d296bf11461027d57806342842e0e146102905780634c3df2fc146102b05780636352211e146102c55780636462a44a146102e557600080fd5b806301ffc9a71461016b57806306fdde03146101a0578063081812fc146101c2578063095ea7b3146101fa57806312e855851461021c57806323b872dd1461023b575b600080fd5b34801561017757600080fd5b5061018b610186366004611c5c565b6104ef565b60405190151581526020015b60405180910390f35b3480156101ac57600080fd5b506101b561051a565b6040516101979190611cc9565b3480156101ce57600080fd5b506101e26101dd366004611cdc565b6105ac565b6040516001600160a01b039091168152602001610197565b34801561020657600080fd5b5061021a610215366004611d11565b6105d3565b005b34801561022857600080fd5b506009545b604051908152602001610197565b34801561024757600080fd5b5061021a610256366004611d3b565b6106ed565b34801561026757600080fd5b5061027061071e565b6040516101979190611d77565b61021a61028b366004611cdc565b610882565b34801561029c57600080fd5b5061021a6102ab366004611d3b565b610a2a565b3480156102bc57600080fd5b50610270610a45565b3480156102d157600080fd5b506101e26102e0366004611cdc565b610bdd565b3480156102f157600080fd5b5061022d60095481565b34801561030757600080fd5b5061022d610316366004611df3565b610c3d565b61022d610329366004611e9a565b610cc3565b34801561033a57600080fd5b5061022d60085481565b34801561035057600080fd5b506101b5610e52565b34801561036557600080fd5b5061021a610374366004611ef3565b610e61565b34801561038557600080fd5b5061022d60075481565b34801561039b57600080fd5b5061021a6103aa366004611cdc565b610e70565b3480156103bb57600080fd5b5061021a6103ca366004611f2f565b610edb565b3480156103db57600080fd5b506101b56103ea366004611cdc565b610f13565b3480156103fb57600080fd5b50610270611023565b61021a610412366004611fab565b6111bb565b34801561042357600080fd5b5061018b610432366004611fcd565b6001600160a01b03918216600090815260056020908152604080832093909416825291909152205460ff1690565b34801561046c57600080fd5b506104b961047b366004611cdc565b600b602052600090815260409020805460018201546002830154600384015460049094015492936001600160a01b0392831693929091169160ff1685565b604080519586526001600160a01b039485166020870152929093169184019190915260608301521515608082015260a001610197565b60006001600160e01b03198216632483248360e11b148061051457506105148261130d565b92915050565b60606000805461052990612000565b80601f016020809104026020016040519081016040528092919081815260200182805461055590612000565b80156105a25780601f10610577576101008083540402835291602001916105a2565b820191906000526020600020905b81548152906001019060200180831161058557829003601f168201915b5050505050905090565b60006105b78261135d565b506000908152600460205260409020546001600160a01b031690565b60006105de82610bdd565b9050806001600160a01b0316836001600160a01b0316036106505760405162461bcd60e51b815260206004820152602160248201527f4552433732313a20617070726f76616c20746f2063757272656e74206f776e656044820152603960f91b60648201526084015b60405180910390fd5b336001600160a01b038216148061066c575061066c8133610432565b6106de5760405162461bcd60e51b815260206004820152603d60248201527f4552433732313a20617070726f76652063616c6c6572206973206e6f7420746f60448201527f6b656e206f776e6572206f7220617070726f76656420666f7220616c6c0000006064820152608401610647565b6106e883836113bf565b505050565b6106f7338261142d565b6107135760405162461bcd60e51b81526004016106479061203a565b6106e88383836114ab565b60075460085460609190600090610735908361209d565b90506000808267ffffffffffffffff81111561075357610753611e0e565b6040519080825280602002602001820160405280156107ac57816020015b6040805160a0810182526000808252602080830182905292820181905260608201819052608082015282526000199092019101816107715790505b50905060015b848111610879576000818152600b6020526040902060020154306001600160a01b0390911603610867576000818152600b6020908152604091829020825160a0810184528154815260018201546001600160a01b039081169382019390935260028201549092169282019290925260038201546060820152600482015460ff1615156080820152835184908690811061084d5761084d6120b0565b60209081029190910101526108636001856120c6565b9350505b80610871816120d9565b9150506107b2565b50949350505050565b6000818152600b6020526040902060038101546001909101546001600160a01b031634821461090a5760405162461bcd60e51b815260206004820152602e60248201527f54686520616d6f756e742073656e64206973206e6f74206d61746368696e672060448201526d776974682074686520707269636560901b6064820152608401610647565b6000838152600b602052604081206002810180546001600160a01b0319908116331790915560048201805460ff1916600190811790915591820180549091169055600880549192909161095e9084906120c6565b9091555061096f90503033856114ab565b600a546009546040516001600160a01b039092169181156108fc0291906000818181858888f193505050501580156109ab573d6000803e3d6000fd5b506040516001600160a01b038216903480156108fc02916000818181858888f193505050501580156109e1573d6000803e3d6000fd5b50600754604080513381523060208201529081018490527f3d5eb834b5d6cadc063c171c3f25f60bca8ea892ba9db25342278927d0af95569060600160405180910390a2505050565b6106e883838360405180602001604052806000815250610edb565b60075460609060008060015b838111610a9b576000818152600b6020526040902060010154336001600160a01b0390911603610a8957610a866001846120c6565b92505b80610a93816120d9565b915050610a51565b5060008267ffffffffffffffff811115610ab757610ab7611e0e565b604051908082528060200260200182016040528015610b1057816020015b6040805160a081018252600080825260208083018290529282018190526060820181905260808201528252600019909201910181610ad55790505b50905060015b848111610879576000818152600b6020526040902060010154336001600160a01b0390911603610bcb576000818152600b6020908152604091829020825160a0810184528154815260018201546001600160a01b039081169382019390935260028201549092169282019290925260038201546060820152600482015460ff16151560808201528351849086908110610bb157610bb16120b0565b6020908102919091010152610bc76001856120c6565b9350505b80610bd5816120d9565b915050610b16565b6000818152600260205260408120546001600160a01b0316806105145760405162461bcd60e51b8152602060048201526018602482015277115490cdcc8c4e881a5b9d985b1a59081d1bdad95b88125160421b6044820152606401610647565b60006001600160a01b038216610ca75760405162461bcd60e51b815260206004820152602960248201527f4552433732313a2061646472657373207a65726f206973206e6f7420612076616044820152683634b21037bbb732b960b91b6064820152608401610647565b506001600160a01b031660009081526003602052604090205490565b6000808211610d145760405162461bcd60e51b815260206004820152601c60248201527f5072696365206d757374206265206174206c65617374203120776569000000006044820152606401610647565b6009543414610d355760405162461bcd60e51b8152600401610647906120f2565b600160076000828254610d4891906120c6565b92505081905550610d5b3360075461160f565b610d676007548461179a565b6040805160a0810182526007805480835233602080850182815230868801818152606088018b8152600060808a01818152978152600b909552989093209651875590516001870180546001600160a01b03199081166001600160a01b039384161790915592516002880180549094169116179091559451600385015590516004909301805460ff19169315159390931790925554610e0592906114ab565b600754604080513381523060208201529081018490527f224ef611f8efb91cc42a5abd59a28765ecf1c3bcb73d05f16616957dfc7199f39060600160405180910390a25060075492915050565b60606001805461052990612000565b610e6c338383611865565b5050565b600a546001600160a01b03163314610ed65760405162461bcd60e51b815260206004820152602360248201527f43616c6c6572206973206e6f7420746865206d61726b6574706c616365206f776044820152623732b960e91b6064820152608401610647565b600955565b610ee5338361142d565b610f015760405162461bcd60e51b81526004016106479061203a565b610f0d84848484611933565b50505050565b6060610f1e8261135d565b60008281526006602052604081208054610f3790612000565b80601f0160208091040260200160405190810160405280929190818152602001828054610f6390612000565b8015610fb05780601f10610f8557610100808354040283529160200191610fb0565b820191906000526020600020905b815481529060010190602001808311610f9357829003601f168201915b505050505090506000610fce60408051602081019091526000815290565b90508051600003610fe0575092915050565b815115611012578082604051602001610ffa92919061213c565b60405160208183030381529060405292505050919050565b61101b84611966565b949350505050565b60075460609060008060015b838111611079576000818152600b6020526040902060020154336001600160a01b0390911603611067576110646001846120c6565b92505b80611071816120d9565b91505061102f565b5060008267ffffffffffffffff81111561109557611095611e0e565b6040519080825280602002602001820160405280156110ee57816020015b6040805160a0810182526000808252602080830182905292820181905260608201819052608082015282526000199092019101816110b35790505b50905060015b848111610879576000818152600b6020526040902060020154336001600160a01b03909116036111a9576000818152600b6020908152604091829020825160a0810184528154815260018201546001600160a01b039081169382019390935260028201549092169282019290925260038201546060820152600482015460ff1615156080820152835184908690811061118f5761118f6120b0565b60209081029190910101526111a56001856120c6565b9350505b806111b3816120d9565b9150506110f4565b6000828152600b60205260409020600201546001600160a01b031633146112395760405162461bcd60e51b815260206004820152602c60248201527f4f6e6c792074686520746f6b656e206f776e657220697320616c6c6f7765642060448201526b1d1bc81c995cd95b1b081a5d60a21b6064820152608401610647565b600954341461125a5760405162461bcd60e51b8152600401610647906120f2565b6000828152600b6020526040812060048101805460ff1916905560038101839055600180820180546001600160a01b0319908116331790915560029092018054909216301790915560088054919290916112b590849061209d565b909155506112c690503330846114ab565b600754604080513381523060208201529081018390527fd56204568361348257ada9b2997f7ffd8ca011832ee3d6a9bbd9852e3e4632369060600160405180910390a25050565b60006001600160e01b031982166380ac58cd60e01b148061133e57506001600160e01b03198216635b5e139f60e01b145b8061051457506301ffc9a760e01b6001600160e01b0319831614610514565b6000818152600260205260409020546001600160a01b03166113bc5760405162461bcd60e51b8152602060048201526018602482015277115490cdcc8c4e881a5b9d985b1a59081d1bdad95b88125160421b6044820152606401610647565b50565b600081815260046020526040902080546001600160a01b0319166001600160a01b03841690811790915581906113f482610bdd565b6001600160a01b03167f8c5be1e5ebec7d5bd14f71427d1e84f3dd0314c0f7b2291e5b200ac8c7c3b92560405160405180910390a45050565b60008061143983610bdd565b9050806001600160a01b0316846001600160a01b0316148061148057506001600160a01b0380821660009081526005602090815260408083209388168352929052205460ff165b8061101b5750836001600160a01b0316611499846105ac565b6001600160a01b031614949350505050565b826001600160a01b03166114be82610bdd565b6001600160a01b0316146114e45760405162461bcd60e51b81526004016106479061216b565b6001600160a01b0382166115465760405162461bcd60e51b8152602060048201526024808201527f4552433732313a207472616e7366657220746f20746865207a65726f206164646044820152637265737360e01b6064820152608401610647565b826001600160a01b031661155982610bdd565b6001600160a01b03161461157f5760405162461bcd60e51b81526004016106479061216b565b600081815260046020908152604080832080546001600160a01b03199081169091556001600160a01b0387811680865260038552838620805460001901905590871680865283862080546001019055868652600290945282852080549092168417909155905184937fddf252ad1be2c89b69c2b068fc378daa952ba7f163c4a11628f55a4df523b3ef91a4505050565b6001600160a01b0382166116655760405162461bcd60e51b815260206004820181905260248201527f4552433732313a206d696e7420746f20746865207a65726f20616464726573736044820152606401610647565b6000818152600260205260409020546001600160a01b0316156116ca5760405162461bcd60e51b815260206004820152601c60248201527f4552433732313a20746f6b656e20616c7265616479206d696e746564000000006044820152606401610647565b6000818152600260205260409020546001600160a01b03161561172f5760405162461bcd60e51b815260206004820152601c60248201527f4552433732313a20746f6b656e20616c7265616479206d696e746564000000006044820152606401610647565b6001600160a01b038216600081815260036020908152604080832080546001019055848352600290915280822080546001600160a01b0319168417905551839291907fddf252ad1be2c89b69c2b068fc378daa952ba7f163c4a11628f55a4df523b3ef908290a45050565b6000828152600260205260409020546001600160a01b03166118155760405162461bcd60e51b815260206004820152602e60248201527f45524337323155524953746f726167653a2055524920736574206f66206e6f6e60448201526d32bc34b9ba32b73a103a37b5b2b760911b6064820152608401610647565b600082815260066020526040902061182d82826121fe565b506040518281527ff8e1a15aba9398e019f0b49df1a4fde98ee17ae345cb5f6b5e2c27f5033e8ce79060200160405180910390a15050565b816001600160a01b0316836001600160a01b0316036118c65760405162461bcd60e51b815260206004820152601960248201527f4552433732313a20617070726f766520746f2063616c6c6572000000000000006044820152606401610647565b6001600160a01b03838116600081815260056020908152604080832094871680845294825291829020805460ff191686151590811790915591519182527f17307eab39ab6107e8899845ad3d59bd9653f200f220920489ca2b5937696c31910160405180910390a3505050565b61193e8484846114ab565b61194a848484846119da565b610f0d5760405162461bcd60e51b8152600401610647906122be565b60606119718261135d565b600061198860408051602081019091526000815290565b905060008151116119a857604051806020016040528060008152506119d3565b806119b284611adb565b6040516020016119c392919061213c565b6040516020818303038152906040525b9392505050565b60006001600160a01b0384163b15611ad057604051630a85bd0160e11b81526001600160a01b0385169063150b7a0290611a1e903390899088908890600401612310565b6020604051808303816000875af1925050508015611a59575060408051601f3d908101601f19168201909252611a569181019061234d565b60015b611ab6573d808015611a87576040519150601f19603f3d011682016040523d82523d6000602084013e611a8c565b606091505b508051600003611aae5760405162461bcd60e51b8152600401610647906122be565b805181602001fd5b6001600160e01b031916630a85bd0160e11b14905061101b565b506001949350505050565b60606000611ae883611b6e565b600101905060008167ffffffffffffffff811115611b0857611b08611e0e565b6040519080825280601f01601f191660200182016040528015611b32576020820181803683370190505b5090508181016020015b600019016f181899199a1a9b1b9c1cb0b131b232b360811b600a86061a8153600a8504945084611b3c57509392505050565b60008072184f03e93ff9f4daa797ed6e38ed64bf6a1f0160401b8310611bad5772184f03e93ff9f4daa797ed6e38ed64bf6a1f0160401b830492506040015b6d04ee2d6d415b85acef81000000008310611bd9576d04ee2d6d415b85acef8100000000830492506020015b662386f26fc100008310611bf757662386f26fc10000830492506010015b6305f5e1008310611c0f576305f5e100830492506008015b6127108310611c2357612710830492506004015b60648310611c35576064830492506002015b600a83106105145760010192915050565b6001600160e01b0319811681146113bc57600080fd5b600060208284031215611c6e57600080fd5b81356119d381611c46565b60005b83811015611c94578181015183820152602001611c7c565b50506000910152565b60008151808452611cb5816020860160208601611c79565b601f01601f19169290920160200192915050565b6020815260006119d36020830184611c9d565b600060208284031215611cee57600080fd5b5035919050565b80356001600160a01b0381168114611d0c57600080fd5b919050565b60008060408385031215611d2457600080fd5b611d2d83611cf5565b946020939093013593505050565b600080600060608486031215611d5057600080fd5b611d5984611cf5565b9250611d6760208501611cf5565b9150604084013590509250925092565b602080825282518282018190526000919060409081850190868401855b82811015611de657815180518552868101516001600160a01b03908116888701528682015116868601526060808201519086015260809081015115159085015260a09093019290850190600101611d94565b5091979650505050505050565b600060208284031215611e0557600080fd5b6119d382611cf5565b634e487b7160e01b600052604160045260246000fd5b600067ffffffffffffffff80841115611e3f57611e3f611e0e565b604051601f8501601f19908116603f01168101908282118183101715611e6757611e67611e0e565b81604052809350858152868686011115611e8057600080fd5b858560208301376000602087830101525050509392505050565b60008060408385031215611ead57600080fd5b823567ffffffffffffffff811115611ec457600080fd5b8301601f81018513611ed557600080fd5b611ee485823560208401611e24565b95602094909401359450505050565b60008060408385031215611f0657600080fd5b611f0f83611cf5565b915060208301358015158114611f2457600080fd5b809150509250929050565b60008060008060808587031215611f4557600080fd5b611f4e85611cf5565b9350611f5c60208601611cf5565b925060408501359150606085013567ffffffffffffffff811115611f7f57600080fd5b8501601f81018713611f9057600080fd5b611f9f87823560208401611e24565b91505092959194509250565b60008060408385031215611fbe57600080fd5b50508035926020909101359150565b60008060408385031215611fe057600080fd5b611fe983611cf5565b9150611ff760208401611cf5565b90509250929050565b600181811c9082168061201457607f821691505b60208210810361203457634e487b7160e01b600052602260045260246000fd5b50919050565b6020808252602d908201527f4552433732313a2063616c6c6572206973206e6f7420746f6b656e206f776e6560408201526c1c881bdc88185c1c1c9bdd9959609a1b606082015260800190565b634e487b7160e01b600052601160045260246000fd5b8181038181111561051457610514612087565b634e487b7160e01b600052603260045260246000fd5b8082018082111561051457610514612087565b6000600182016120eb576120eb612087565b5060010190565b6020808252602a908201527f506c656173652073656e6420746865206578616374206c697374696e672070726040820152691a58d948185b5bdd5b9d60b21b606082015260800190565b6000835161214e818460208801611c79565b835190830190612162818360208801611c79565b01949350505050565b60208082526025908201527f4552433732313a207472616e736665722066726f6d20696e636f72726563742060408201526437bbb732b960d91b606082015260800190565b601f8211156106e857600081815260208120601f850160051c810160208610156121d75750805b601f850160051c820191505b818110156121f6578281556001016121e3565b505050505050565b815167ffffffffffffffff81111561221857612218611e0e565b61222c816122268454612000565b846121b0565b602080601f83116001811461226157600084156122495750858301515b600019600386901b1c1916600185901b1785556121f6565b600085815260208120601f198616915b8281101561229057888601518255948401946001909101908401612271565b50858210156122ae5787850151600019600388901b60f8161c191681555b5050505050600190811b01905550565b60208082526032908201527f4552433732313a207472616e7366657220746f206e6f6e20455243373231526560408201527131b2b4bb32b91034b6b83632b6b2b73a32b960711b606082015260800190565b6001600160a01b038581168252841660208201526040810183905260806060820181905260009061234390830184611c9d565b9695505050505050565b60006020828403121561235f57600080fd5b81516119d381611c4656fea2646970667358221220d4b56df0c422758fef6bf33052574542f8a5dd239785d8f4598b55016392bc8b64736f6c63430008120033",
  "linkReferences": {},
  "deployedLinkReferences": {}
}