{
  "_format": "hh-sol-artifact-1",
  "contractName": "NFTMarketplace",
  "sourceName": "contracts/NFTMarketplace.sol",
  "abi": [
    {
      "inputs": [],
      "stateMutability": "nonpayable",
      "type": "constructor"
    },
    {
      "anonymous": false,
      "inputs": [
        {
          "indexed": true,
          "internalType": "address",
          "name": "owner",
          "type": "address"
        },
        {
          "indexed": true,
          "internalType": "address",
          "name": "approved",
          "type": "address"
        },
        {
          "indexed": true,
          "internalType": "uint256",
          "name": "tokenId",
          "type": "uint256"
        }
      ],
      "name": "Approval",
      "type": "event"
    },
    {
      "anonymous": false,
      "inputs": [
        {
          "indexed": true,
          "internalType": "address",
          "name": "owner",
          "type": "address"
        },
        {
          "indexed": true,
          "internalType": "address",
          "name": "operator",
          "type": "address"
        },
        {
          "indexed": false,
          "internalType": "bool",
          "name": "approved",
          "type": "bool"
        }
      ],
      "name": "ApprovalForAll",
      "type": "event"
    },
    {
      "anonymous": false,
      "inputs": [
        {
          "indexed": false,
          "internalType": "uint256",
          "name": "_fromTokenId",
          "type": "uint256"
        },
        {
          "indexed": false,
          "internalType": "uint256",
          "name": "_toTokenId",
          "type": "uint256"
        }
      ],
      "name": "BatchMetadataUpdate",
      "type": "event"
    },
    {
      "anonymous": false,
      "inputs": [
        {
          "indexed": false,
          "internalType": "uint256",
          "name": "_tokenId",
          "type": "uint256"
        }
      ],
      "name": "MetadataUpdate",
      "type": "event"
    },
    {
      "anonymous": false,
      "inputs": [
        {
          "indexed": true,
          "internalType": "uint256",
          "name": "tokenId",
          "type": "uint256"
        },
        {
          "indexed": false,
          "internalType": "address",
          "name": "seller",
          "type": "address"
        },
        {
          "indexed": false,
          "internalType": "address",
          "name": "owner",
          "type": "address"
        },
        {
          "indexed": false,
          "internalType": "uint256",
          "name": "price",
          "type": "uint256"
        }
      ],
      "name": "ResaleCreated",
      "type": "event"
    },
    {
      "anonymous": false,
      "inputs": [
        {
          "indexed": true,
          "internalType": "uint256",
          "name": "tokenId",
          "type": "uint256"
        },
        {
          "indexed": false,
          "internalType": "address",
          "name": "seller",
          "type": "address"
        },
        {
          "indexed": false,
          "internalType": "address",
          "name": "owner",
          "type": "address"
        },
        {
          "indexed": false,
          "internalType": "uint256",
          "name": "price",
          "type": "uint256"
        }
      ],
      "name": "TokenCreated",
      "type": "event"
    },
    {
      "anonymous": false,
      "inputs": [
        {
          "indexed": true,
          "internalType": "uint256",
          "name": "tokenId",
          "type": "uint256"
        },
        {
          "indexed": false,
          "internalType": "address",
          "name": "seller",
          "type": "address"
        },
        {
          "indexed": false,
          "internalType": "address",
          "name": "owner",
          "type": "address"
        },
        {
          "indexed": false,
          "internalType": "uint256",
          "name": "price",
          "type": "uint256"
        }
      ],
      "name": "TokenSold",
      "type": "event"
    },
    {
      "anonymous": false,
      "inputs": [
        {
          "indexed": true,
          "internalType": "address",
          "name": "from",
          "type": "address"
        },
        {
          "indexed": true,
          "internalType": "address",
          "name": "to",
          "type": "address"
        },
        {
          "indexed": true,
          "internalType": "uint256",
          "name": "tokenId",
          "type": "uint256"
        }
      ],
      "name": "Transfer",
      "type": "event"
    },
    {
      "inputs": [],
      "name": "_itemsSold",
      "outputs": [
        {
          "internalType": "uint256",
          "name": "",
          "type": "uint256"
        }
      ],
      "stateMutability": "view",
      "type": "function"
    },
    {
      "inputs": [],
      "name": "_listingPrice",
      "outputs": [
        {
          "internalType": "uint256",
          "name": "",
          "type": "uint256"
        }
      ],
      "stateMutability": "view",
      "type": "function"
    },
    {
      "inputs": [],
      "name": "_tokenIds",
      "outputs": [
        {
          "internalType": "uint256",
          "name": "",
          "type": "uint256"
        }
      ],
      "stateMutability": "view",
      "type": "function"
    },
    {
      "inputs": [
        {
          "internalType": "address",
          "name": "to",
          "type": "address"
        },
        {
          "internalType": "uint256",
          "name": "tokenId",
          "type": "uint256"
        }
      ],
      "name": "approve",
      "outputs": [],
      "stateMutability": "nonpayable",
      "type": "function"
    },
    {
      "inputs": [
        {
          "internalType": "address",
          "name": "owner",
          "type": "address"
        }
      ],
      "name": "balanceOf",
      "outputs": [
        {
          "internalType": "uint256",
          "name": "",
          "type": "uint256"
        }
      ],
      "stateMutability": "view",
      "type": "function"
    },
    {
      "inputs": [
        {
          "internalType": "uint256",
          "name": "tokenId",
          "type": "uint256"
        }
      ],
      "name": "buyToken",
      "outputs": [],
      "stateMutability": "payable",
      "type": "function"
    },
    {
      "inputs": [
        {
          "internalType": "string",
          "name": "tokenURI_",
          "type": "string"
        },
        {
          "internalType": "uint256",
          "name": "price",
          "type": "uint256"
        }
      ],
      "name": "createToken",
      "outputs": [
        {
          "internalType": "uint256",
          "name": "",
          "type": "uint256"
        }
      ],
      "stateMutability": "payable",
      "type": "function"
    },
    {
      "inputs": [],
      "name": "fetchAllUnsoldTokens",
      "outputs": [
        {
          "components": [
            {
              "internalType": "uint256",
              "name": "tokenId",
              "type": "uint256"
            },
            {
              "internalType": "address payable",
              "name": "seller",
              "type": "address"
            },
            {
              "internalType": "address payable",
              "name": "owner",
              "type": "address"
            },
            {
              "internalType": "uint256",
              "name": "price",
              "type": "uint256"
            },
            {
              "internalType": "bool",
              "name": "sold",
              "type": "bool"
            }
          ],
          "internalType": "struct NFTMarketplace.Token[]",
          "name": "",
          "type": "tuple[]"
        }
      ],
      "stateMutability": "view",
      "type": "function"
    },
    {
      "inputs": [],
      "name": "fetchMyListedTokens",
      "outputs": [
        {
          "components": [
            {
              "internalType": "uint256",
              "name": "tokenId",
              "type": "uint256"
            },
            {
              "internalType": "address payable",
              "name": "seller",
              "type": "address"
            },
            {
              "internalType": "address payable",
              "name": "owner",
              "type": "address"
            },
            {
              "internalType": "uint256",
              "name": "price",
              "type": "uint256"
            },
            {
              "internalType": "bool",
              "name": "sold",
              "type": "bool"
            }
          ],
          "internalType": "struct NFTMarketplace.Token[]",
          "name": "",
          "type": "tuple[]"
        }
      ],
      "stateMutability": "view",
      "type": "function"
    },
    {
      "inputs": [],
      "name": "fetchTokensOwnedByMe",
      "outputs": [
        {
          "components": [
            {
              "internalType": "uint256",
              "name": "tokenId",
              "type": "uint256"
            },
            {
              "internalType": "address payable",
              "name": "seller",
              "type": "address"
            },
            {
              "internalType": "address payable",
              "name": "owner",
              "type": "address"
            },
            {
              "internalType": "uint256",
              "name": "price",
              "type": "uint256"
            },
            {
              "internalType": "bool",
              "name": "sold",
              "type": "bool"
            }
          ],
          "internalType": "struct NFTMarketplace.Token[]",
          "name": "",
          "type": "tuple[]"
        }
      ],
      "stateMutability": "view",
      "type": "function"
    },
    {
      "inputs": [
        {
          "internalType": "uint256",
          "name": "tokenId",
          "type": "uint256"
        }
      ],
      "name": "getApproved",
      "outputs": [
        {
          "internalType": "address",
          "name": "",
          "type": "address"
        }
      ],
      "stateMutability": "view",
      "type": "function"
    },
    {
      "inputs": [],
      "name": "getListingPrice",
      "outputs": [
        {
          "internalType": "uint256",
          "name": "",
          "type": "uint256"
        }
      ],
      "stateMutability": "view",
      "type": "function"
    },
    {
      "inputs": [
        {
          "internalType": "uint256",
          "name": "",
          "type": "uint256"
        }
      ],
      "name": "idToToken",
      "outputs": [
        {
          "internalType": "uint256",
          "name": "tokenId",
          "type": "uint256"
        },
        {
          "internalType": "address payable",
          "name": "seller",
          "type": "address"
        },
        {
          "internalType": "address payable",
          "name": "owner",
          "type": "address"
        },
        {
          "internalType": "uint256",
          "name": "price",
          "type": "uint256"
        },
        {
          "internalType": "bool",
          "name": "sold",
          "type": "bool"
        }
      ],
      "stateMutability": "view",
      "type": "function"
    },
    {
      "inputs": [
        {
          "internalType": "address",
          "name": "owner",
          "type": "address"
        },
        {
          "internalType": "address",
          "name": "operator",
          "type": "address"
        }
      ],
      "name": "isApprovedForAll",
      "outputs": [
        {
          "internalType": "bool",
          "name": "",
          "type": "bool"
        }
      ],
      "stateMutability": "view",
      "type": "function"
    },
    {
      "inputs": [],
      "name": "name",
      "outputs": [
        {
          "internalType": "string",
          "name": "",
          "type": "string"
        }
      ],
      "stateMutability": "view",
      "type": "function"
    },
    {
      "inputs": [
        {
          "internalType": "uint256",
          "name": "tokenId",
          "type": "uint256"
        }
      ],
      "name": "ownerOf",
      "outputs": [
        {
          "internalType": "address",
          "name": "",
          "type": "address"
        }
      ],
      "stateMutability": "view",
      "type": "function"
    },
    {
      "inputs": [
        {
          "internalType": "uint256",
          "name": "tokenId",
          "type": "uint256"
        },
        {
          "internalType": "uint256",
          "name": "price",
          "type": "uint256"
        }
      ],
      "name": "resellToken",
      "outputs": [],
      "stateMutability": "payable",
      "type": "function"
    },
    {
      "inputs": [
        {
          "internalType": "address",
          "name": "from",
          "type": "address"
        },
        {
          "internalType": "address",
          "name": "to",
          "type": "address"
        },
        {
          "internalType": "uint256",
          "name": "tokenId",
          "type": "uint256"
        }
      ],
      "name": "safeTransferFrom",
      "outputs": [],
      "stateMutability": "nonpayable",
      "type": "function"
    },
    {
      "inputs": [
        {
          "internalType": "address",
          "name": "from",
          "type": "address"
        },
        {
          "internalType": "address",
          "name": "to",
          "type": "address"
        },
        {
          "internalType": "uint256",
          "name": "tokenId",
          "type": "uint256"
        },
        {
          "internalType": "bytes",
          "name": "data",
          "type": "bytes"
        }
      ],
      "name": "safeTransferFrom",
      "outputs": [],
      "stateMutability": "nonpayable",
      "type": "function"
    },
    {
      "inputs": [
        {
          "internalType": "address",
          "name": "operator",
          "type": "address"
        },
        {
          "internalType": "bool",
          "name": "approved",
          "type": "bool"
        }
      ],
      "name": "setApprovalForAll",
      "outputs": [],
      "stateMutability": "nonpayable",
      "type": "function"
    },
    {
      "inputs": [
        {
          "internalType": "bytes4",
          "name": "interfaceId",
          "type": "bytes4"
        }
      ],
      "name": "supportsInterface",
      "outputs": [
        {
          "internalType": "bool",
          "name": "",
          "type": "bool"
        }
      ],
      "stateMutability": "view",
      "type": "function"
    },
    {
      "inputs": [],
      "name": "symbol",
      "outputs": [
        {
          "internalType": "string",
          "name": "",
          "type": "string"
        }
      ],
      "stateMutability": "view",
      "type": "function"
    },
    {
      "inputs": [
        {
          "internalType": "uint256",
          "name": "tokenId",
          "type": "uint256"
        }
      ],
      "name": "tokenURI",
      "outputs": [
        {
          "internalType": "string",
          "name": "",
          "type": "string"
        }
      ],
      "stateMutability": "view",
      "type": "function"
    },
    {
      "inputs": [
        {
          "internalType": "address",
          "name": "from",
          "type": "address"
        },
        {
          "internalType": "address",
          "name": "to",
          "type": "address"
        },
        {
          "internalType": "uint256",
          "name": "tokenId",
          "type": "uint256"
        }
      ],
      "name": "transferFrom",
      "outputs": [],
      "stateMutability": "nonpayable",
      "type": "function"
    },
    {
      "inputs": [
        {
          "internalType": "uint256",
          "name": "listingPrice",
          "type": "uint256"
        }
      ],
      "name": "updateListingPrice",
      "outputs": [],
      "stateMutability": "nonpayable",
      "type": "function"
    }
  ],
  "bytecode": "0x60806040523480156200001157600080fd5b506040518060400160405280600e81526020017f4e46544d61726b6574506c6163650000000000000000000000000000000000008152506040518060400160405280600481526020017f4e46544d0000000000000000000000000000000000000000000000000000000081525081600090816200008f919062000374565b508060019081620000a1919062000374565b50505067016345785d8a000060098190555033600a60006101000a81548173ffffffffffffffffffffffffffffffffffffffff021916908373ffffffffffffffffffffffffffffffffffffffff1602179055506200045b565b600081519050919050565b7f4e487b7100000000000000000000000000000000000000000000000000000000600052604160045260246000fd5b7f4e487b7100000000000000000000000000000000000000000000000000000000600052602260045260246000fd5b600060028204905060018216806200017c57607f821691505b60208210810362000192576200019162000134565b5b50919050565b60008190508160005260206000209050919050565b60006020601f8301049050919050565b600082821b905092915050565b600060088302620001fc7fffffffffffffffffffffffffffffffffffffffffffffffffffffffffffffffff82620001bd565b620002088683620001bd565b95508019841693508086168417925050509392505050565b6000819050919050565b6000819050919050565b6000620002556200024f620002498462000220565b6200022a565b62000220565b9050919050565b6000819050919050565b620002718362000234565b6200028962000280826200025c565b848454620001ca565b825550505050565b600090565b620002a062000291565b620002ad81848462000266565b505050565b5b81811015620002d557620002c960008262000296565b600181019050620002b3565b5050565b601f8211156200032457620002ee8162000198565b620002f984620001ad565b8101602085101562000309578190505b620003216200031885620001ad565b830182620002b2565b50505b505050565b600082821c905092915050565b6000620003496000198460080262000329565b1980831691505092915050565b600062000364838362000336565b9150826002028217905092915050565b6200037f82620000fa565b67ffffffffffffffff8111156200039b576200039a62000105565b5b620003a7825462000163565b620003b4828285620002d9565b600060209050601f831160018114620003ec5760008415620003d7578287015190505b620003e3858262000356565b86555062000453565b601f198416620003fc8662000198565b60005b828110156200042657848901518255600182019150602085019450602081019050620003ff565b8683101562000446578489015162000442601f89168262000336565b8355505b6001600288020188555050505b505050505050565b6143e8806200046b6000396000f3fe6080604052600436106101665760003560e01c806370a08231116100d1578063ae677aa31161008a578063d93f8cda11610064578063d93f8cda14610536578063e219fc7514610561578063e985e9c51461057d578063f5c6b96b146105ba57610166565b8063ae677aa3146104a7578063b88d4fde146104d0578063c87b56dd146104f957610166565b806370a082311461039057806372b3b620146103cd57806387506a0d146103fd57806395d89b4114610428578063a22cb46514610453578063aa46a4001461047c57610166565b806323d6161b1161012357806323d6161b1461028d5780632d296bf1146102b857806342842e0e146102d45780634c3df2fc146102fd5780636352211e146103285780636462a44a1461036557610166565b806301ffc9a71461016b57806306fdde03146101a8578063081812fc146101d3578063095ea7b31461021057806312e855851461023957806323b872dd14610264575b600080fd5b34801561017757600080fd5b50610192600480360381019061018d9190612cc4565b6105fb565b60405161019f9190612d0c565b60405180910390f35b3480156101b457600080fd5b506101bd61065c565b6040516101ca9190612db7565b60405180910390f35b3480156101df57600080fd5b506101fa60048036038101906101f59190612e0f565b6106ee565b6040516102079190612e7d565b60405180910390f35b34801561021c57600080fd5b5061023760048036038101906102329190612ec4565b610734565b005b34801561024557600080fd5b5061024e61084b565b60405161025b9190612f13565b60405180910390f35b34801561027057600080fd5b5061028b60048036038101906102869190612f2e565b610855565b005b34801561029957600080fd5b506102a26108b5565b6040516102af91906130d7565b60405180910390f35b6102d260048036038101906102cd9190612e0f565b610aed565b005b3480156102e057600080fd5b506102fb60048036038101906102f69190612f2e565b610d77565b005b34801561030957600080fd5b50610312610d97565b60405161031f91906130d7565b60405180910390f35b34801561033457600080fd5b5061034f600480360381019061034a9190612e0f565b611058565b60405161035c9190612e7d565b60405180910390f35b34801561037157600080fd5b5061037a6110de565b6040516103879190612f13565b60405180910390f35b34801561039c57600080fd5b506103b760048036038101906103b291906130f9565b6110e4565b6040516103c49190612f13565b60405180910390f35b6103e760048036038101906103e2919061325b565b61119b565b6040516103f49190612f13565b60405180910390f35b34801561040957600080fd5b506104126113dd565b60405161041f9190612f13565b60405180910390f35b34801561043457600080fd5b5061043d6113e3565b60405161044a9190612db7565b60405180910390f35b34801561045f57600080fd5b5061047a600480360381019061047591906132e3565b611475565b005b34801561048857600080fd5b5061049161148b565b60405161049e9190612f13565b60405180910390f35b3480156104b357600080fd5b506104ce60048036038101906104c99190612e0f565b611491565b005b3480156104dc57600080fd5b506104f760048036038101906104f291906133c4565b61152b565b005b34801561050557600080fd5b50610520600480360381019061051b9190612e0f565b61158d565b60405161052d9190612db7565b60405180910390f35b34801561054257600080fd5b5061054b61169f565b60405161055891906130d7565b60405180910390f35b61057b60048036038101906105769190613447565b611960565b005b34801561058957600080fd5b506105a4600480360381019061059f9190613487565b611ba1565b6040516105b19190612d0c565b60405180910390f35b3480156105c657600080fd5b506105e160048036038101906105dc9190612e0f565b611c35565b6040516105f29594939291906134d6565b60405180910390f35b6000634906490660e01b7bffffffffffffffffffffffffffffffffffffffffffffffffffffffff1916827bffffffffffffffffffffffffffffffffffffffffffffffffffffffff19161480610655575061065482611cb8565b5b9050919050565b60606000805461066b90613558565b80601f016020809104026020016040519081016040528092919081815260200182805461069790613558565b80156106e45780601f106106b9576101008083540402835291602001916106e4565b820191906000526020600020905b8154815290600101906020018083116106c757829003601f168201915b5050505050905090565b60006106f982611d9a565b6004600083815260200190815260200160002060009054906101000a900473ffffffffffffffffffffffffffffffffffffffff169050919050565b600061073f82611058565b90508073ffffffffffffffffffffffffffffffffffffffff168373ffffffffffffffffffffffffffffffffffffffff16036107af576040517f08c379a00000000000000000000000000000000000000000000000000000000081526004016107a6906135fb565b60405180910390fd5b8073ffffffffffffffffffffffffffffffffffffffff166107ce611de5565b73ffffffffffffffffffffffffffffffffffffffff1614806107fd57506107fc816107f7611de5565b611ba1565b5b61083c576040517f08c379a00000000000000000000000000000000000000000000000000000000081526004016108339061368d565b60405180910390fd5b6108468383611ded565b505050565b6000600954905090565b610866610860611de5565b82611ea6565b6108a5576040517f08c379a000000000000000000000000000000000000000000000000000000000815260040161089c9061371f565b60405180910390fd5b6108b0838383611f3b565b505050565b60606000600754905060006008546007546108d0919061376e565b90506000808267ffffffffffffffff8111156108ef576108ee613130565b5b60405190808252806020026020018201604052801561092857816020015b610915612bfb565b81526020019060019003908161090d5790505b5090506000600190505b848111610ae2573073ffffffffffffffffffffffffffffffffffffffff16600b600083815260200190815260200160002060020160009054906101000a900473ffffffffffffffffffffffffffffffffffffffff1673ffffffffffffffffffffffffffffffffffffffff1603610acf576000600b60008381526020019081526020016000209050806040518060a0016040529081600082015481526020016001820160009054906101000a900473ffffffffffffffffffffffffffffffffffffffff1673ffffffffffffffffffffffffffffffffffffffff1673ffffffffffffffffffffffffffffffffffffffff1681526020016002820160009054906101000a900473ffffffffffffffffffffffffffffffffffffffff1673ffffffffffffffffffffffffffffffffffffffff1673ffffffffffffffffffffffffffffffffffffffff168152602001600382015481526020016004820160009054906101000a900460ff161515151581525050838581518110610ab357610ab26137a2565b5b6020026020010181905250600184610acb91906137d1565b9350505b8080610ada90613805565b915050610932565b508094505050505090565b6000600b60008381526020019081526020016000206003015490506000600b600084815260200190815260200160002060010160009054906101000a900473ffffffffffffffffffffffffffffffffffffffff169050813414610b85576040517f08c379a0000000000000000000000000000000000000000000000000000000008152600401610b7c906138bf565b60405180910390fd5b33600b600085815260200190815260200160002060020160006101000a81548173ffffffffffffffffffffffffffffffffffffffff021916908373ffffffffffffffffffffffffffffffffffffffff1602179055506001600b600085815260200190815260200160002060040160006101000a81548160ff0219169083151502179055506000600b600085815260200190815260200160002060010160006101000a81548173ffffffffffffffffffffffffffffffffffffffff021916908373ffffffffffffffffffffffffffffffffffffffff160217905550600160086000828254610c7291906137d1565b92505081905550610c84303385611f3b565b600a60009054906101000a900473ffffffffffffffffffffffffffffffffffffffff1673ffffffffffffffffffffffffffffffffffffffff166108fc6009549081150290604051600060405180830381858888f19350505050158015610cee573d6000803e3d6000fd5b508073ffffffffffffffffffffffffffffffffffffffff166108fc349081150290604051600060405180830381858888f19350505050158015610d35573d6000803e3d6000fd5b50827f3d5eb834b5d6cadc063c171c3f25f60bca8ea892ba9db25342278927d0af9556333085604051610d6a939291906138df565b60405180910390a2505050565b610d928383836040518060200160405280600081525061152b565b505050565b6060600060075490506000806000600190505b838111610e3d573373ffffffffffffffffffffffffffffffffffffffff16600b600083815260200190815260200160002060010160009054906101000a900473ffffffffffffffffffffffffffffffffffffffff1673ffffffffffffffffffffffffffffffffffffffff1603610e2a57600183610e2791906137d1565b92505b8080610e3590613805565b915050610daa565b5060008267ffffffffffffffff811115610e5a57610e59613130565b5b604051908082528060200260200182016040528015610e9357816020015b610e80612bfb565b815260200190600190039081610e785790505b5090506000600190505b84811161104d573373ffffffffffffffffffffffffffffffffffffffff16600b600083815260200190815260200160002060010160009054906101000a900473ffffffffffffffffffffffffffffffffffffffff1673ffffffffffffffffffffffffffffffffffffffff160361103a576000600b60008381526020019081526020016000209050806040518060a0016040529081600082015481526020016001820160009054906101000a900473ffffffffffffffffffffffffffffffffffffffff1673ffffffffffffffffffffffffffffffffffffffff1673ffffffffffffffffffffffffffffffffffffffff1681526020016002820160009054906101000a900473ffffffffffffffffffffffffffffffffffffffff1673ffffffffffffffffffffffffffffffffffffffff1673ffffffffffffffffffffffffffffffffffffffff168152602001600382015481526020016004820160009054906101000a900460ff16151515158152505083858151811061101e5761101d6137a2565b5b602002602001018190525060018461103691906137d1565b9350505b808061104590613805565b915050610e9d565b508094505050505090565b60008061106483612234565b9050600073ffffffffffffffffffffffffffffffffffffffff168173ffffffffffffffffffffffffffffffffffffffff16036110d5576040517f08c379a00000000000000000000000000000000000000000000000000000000081526004016110cc90613962565b60405180910390fd5b80915050919050565b60095481565b60008073ffffffffffffffffffffffffffffffffffffffff168273ffffffffffffffffffffffffffffffffffffffff1603611154576040517f08c379a000000000000000000000000000000000000000000000000000000000815260040161114b906139f4565b60405180910390fd5b600360008373ffffffffffffffffffffffffffffffffffffffff1673ffffffffffffffffffffffffffffffffffffffff168152602001908152602001600020549050919050565b60008082116111df576040517f08c379a00000000000000000000000000000000000000000000000000000000081526004016111d690613a60565b60405180910390fd5b6009543414611223576040517f08c379a000000000000000000000000000000000000000000000000000000000815260040161121a90613af2565b60405180910390fd5b60016007600082825461123691906137d1565b9250508190555061124933600754612271565b6112556007548461248e565b6040518060a0016040528060075481526020013373ffffffffffffffffffffffffffffffffffffffff1681526020013073ffffffffffffffffffffffffffffffffffffffff16815260200183815260200160001515815250600b600060075481526020019081526020016000206000820151816000015560208201518160010160006101000a81548173ffffffffffffffffffffffffffffffffffffffff021916908373ffffffffffffffffffffffffffffffffffffffff16021790555060408201518160020160006101000a81548173ffffffffffffffffffffffffffffffffffffffff021916908373ffffffffffffffffffffffffffffffffffffffff1602179055506060820151816003015560808201518160040160006101000a81548160ff0219169083151502179055509050506113943330600754611f3b565b6007547f224ef611f8efb91cc42a5abd59a28765ecf1c3bcb73d05f16616957dfc7199f33330856040516113ca939291906138df565b60405180910390a2600754905092915050565b60085481565b6060600180546113f290613558565b80601f016020809104026020016040519081016040528092919081815260200182805461141e90613558565b801561146b5780601f106114405761010080835404028352916020019161146b565b820191906000526020600020905b81548152906001019060200180831161144e57829003601f168201915b5050505050905090565b611487611480611de5565b8383612532565b5050565b60075481565b600a60009054906101000a900473ffffffffffffffffffffffffffffffffffffffff1673ffffffffffffffffffffffffffffffffffffffff163373ffffffffffffffffffffffffffffffffffffffff1614611521576040517f08c379a000000000000000000000000000000000000000000000000000000000815260040161151890613b84565b60405180910390fd5b8060098190555050565b61153c611536611de5565b83611ea6565b61157b576040517f08c379a00000000000000000000000000000000000000000000000000000000081526004016115729061371f565b60405180910390fd5b6115878484848461269e565b50505050565b606061159882611d9a565b60006006600084815260200190815260200160002080546115b890613558565b80601f01602080910402602001604051908101604052809291908181526020018280546115e490613558565b80156116315780601f1061160657610100808354040283529160200191611631565b820191906000526020600020905b81548152906001019060200180831161161457829003601f168201915b5050505050905060006116426126fa565b9050600081510361165757819250505061169a565b60008251111561168c578082604051602001611674929190613be0565b6040516020818303038152906040529250505061169a565b61169584612711565b925050505b919050565b6060600060075490506000806000600190505b838111611745573373ffffffffffffffffffffffffffffffffffffffff16600b600083815260200190815260200160002060020160009054906101000a900473ffffffffffffffffffffffffffffffffffffffff1673ffffffffffffffffffffffffffffffffffffffff16036117325760018361172f91906137d1565b92505b808061173d90613805565b9150506116b2565b5060008267ffffffffffffffff81111561176257611761613130565b5b60405190808252806020026020018201604052801561179b57816020015b611788612bfb565b8152602001906001900390816117805790505b5090506000600190505b848111611955573373ffffffffffffffffffffffffffffffffffffffff16600b600083815260200190815260200160002060020160009054906101000a900473ffffffffffffffffffffffffffffffffffffffff1673ffffffffffffffffffffffffffffffffffffffff1603611942576000600b60008381526020019081526020016000209050806040518060a0016040529081600082015481526020016001820160009054906101000a900473ffffffffffffffffffffffffffffffffffffffff1673ffffffffffffffffffffffffffffffffffffffff1673ffffffffffffffffffffffffffffffffffffffff1681526020016002820160009054906101000a900473ffffffffffffffffffffffffffffffffffffffff1673ffffffffffffffffffffffffffffffffffffffff1673ffffffffffffffffffffffffffffffffffffffff168152602001600382015481526020016004820160009054906101000a900460ff161515151581525050838581518110611926576119256137a2565b5b602002602001018190525060018461193e91906137d1565b9350505b808061194d90613805565b9150506117a5565b508094505050505090565b3373ffffffffffffffffffffffffffffffffffffffff16600b600084815260200190815260200160002060020160009054906101000a900473ffffffffffffffffffffffffffffffffffffffff1673ffffffffffffffffffffffffffffffffffffffff1614611a04576040517f08c379a00000000000000000000000000000000000000000000000000000000081526004016119fb90613c76565b60405180910390fd5b6009543414611a48576040517f08c379a0000000000000000000000000000000000000000000000000000000008152600401611a3f90613af2565b60405180910390fd5b6000600b600084815260200190815260200160002060040160006101000a81548160ff02191690831515021790555080600b60008481526020019081526020016000206003018190555033600b600084815260200190815260200160002060010160006101000a81548173ffffffffffffffffffffffffffffffffffffffff021916908373ffffffffffffffffffffffffffffffffffffffff16021790555030600b600084815260200190815260200160002060020160006101000a81548173ffffffffffffffffffffffffffffffffffffffff021916908373ffffffffffffffffffffffffffffffffffffffff160217905550600160086000828254611b4f919061376e565b92505081905550611b61333084611f3b565b817fd56204568361348257ada9b2997f7ffd8ca011832ee3d6a9bbd9852e3e463236333084604051611b95939291906138df565b60405180910390a25050565b6000600560008473ffffffffffffffffffffffffffffffffffffffff1673ffffffffffffffffffffffffffffffffffffffff16815260200190815260200160002060008373ffffffffffffffffffffffffffffffffffffffff1673ffffffffffffffffffffffffffffffffffffffff16815260200190815260200160002060009054906101000a900460ff16905092915050565b600b6020528060005260406000206000915090508060000154908060010160009054906101000a900473ffffffffffffffffffffffffffffffffffffffff16908060020160009054906101000a900473ffffffffffffffffffffffffffffffffffffffff16908060030154908060040160009054906101000a900460ff16905085565b60007f80ac58cd000000000000000000000000000000000000000000000000000000007bffffffffffffffffffffffffffffffffffffffffffffffffffffffff1916827bffffffffffffffffffffffffffffffffffffffffffffffffffffffff19161480611d8357507f5b5e139f000000000000000000000000000000000000000000000000000000007bffffffffffffffffffffffffffffffffffffffffffffffffffffffff1916827bffffffffffffffffffffffffffffffffffffffffffffffffffffffff1916145b80611d935750611d9282612779565b5b9050919050565b611da3816127e3565b611de2576040517f08c379a0000000000000000000000000000000000000000000000000000000008152600401611dd990613962565b60405180910390fd5b50565b600033905090565b816004600083815260200190815260200160002060006101000a81548173ffffffffffffffffffffffffffffffffffffffff021916908373ffffffffffffffffffffffffffffffffffffffff160217905550808273ffffffffffffffffffffffffffffffffffffffff16611e6083611058565b73ffffffffffffffffffffffffffffffffffffffff167f8c5be1e5ebec7d5bd14f71427d1e84f3dd0314c0f7b2291e5b200ac8c7c3b92560405160405180910390a45050565b600080611eb283611058565b90508073ffffffffffffffffffffffffffffffffffffffff168473ffffffffffffffffffffffffffffffffffffffff161480611ef45750611ef38185611ba1565b5b80611f3257508373ffffffffffffffffffffffffffffffffffffffff16611f1a846106ee565b73ffffffffffffffffffffffffffffffffffffffff16145b91505092915050565b8273ffffffffffffffffffffffffffffffffffffffff16611f5b82611058565b73ffffffffffffffffffffffffffffffffffffffff1614611fb1576040517f08c379a0000000000000000000000000000000000000000000000000000000008152600401611fa890613d08565b60405180910390fd5b600073ffffffffffffffffffffffffffffffffffffffff168273ffffffffffffffffffffffffffffffffffffffff1603612020576040517f08c379a000000000000000000000000000000000000000000000000000000000815260040161201790613d9a565b60405180910390fd5b61202d8383836001612824565b8273ffffffffffffffffffffffffffffffffffffffff1661204d82611058565b73ffffffffffffffffffffffffffffffffffffffff16146120a3576040517f08c379a000000000000000000000000000000000000000000000000000000000815260040161209a90613d08565b60405180910390fd5b6004600082815260200190815260200160002060006101000a81549073ffffffffffffffffffffffffffffffffffffffff02191690556001600360008573ffffffffffffffffffffffffffffffffffffffff1673ffffffffffffffffffffffffffffffffffffffff168152602001908152602001600020600082825403925050819055506001600360008473ffffffffffffffffffffffffffffffffffffffff1673ffffffffffffffffffffffffffffffffffffffff16815260200190815260200160002060008282540192505081905550816002600083815260200190815260200160002060006101000a81548173ffffffffffffffffffffffffffffffffffffffff021916908373ffffffffffffffffffffffffffffffffffffffff160217905550808273ffffffffffffffffffffffffffffffffffffffff168473ffffffffffffffffffffffffffffffffffffffff167fddf252ad1be2c89b69c2b068fc378daa952ba7f163c4a11628f55a4df523b3ef60405160405180910390a461222f838383600161282a565b505050565b60006002600083815260200190815260200160002060009054906101000a900473ffffffffffffffffffffffffffffffffffffffff169050919050565b600073ffffffffffffffffffffffffffffffffffffffff168273ffffffffffffffffffffffffffffffffffffffff16036122e0576040517f08c379a00000000000000000000000000000000000000000000000000000000081526004016122d790613e06565b60405180910390fd5b6122e9816127e3565b15612329576040517f08c379a000000000000000000000000000000000000000000000000000000000815260040161232090613e72565b60405180910390fd5b612337600083836001612824565b612340816127e3565b15612380576040517f08c379a000000000000000000000000000000000000000000000000000000000815260040161237790613e72565b60405180910390fd5b6001600360008473ffffffffffffffffffffffffffffffffffffffff1673ffffffffffffffffffffffffffffffffffffffff16815260200190815260200160002060008282540192505081905550816002600083815260200190815260200160002060006101000a81548173ffffffffffffffffffffffffffffffffffffffff021916908373ffffffffffffffffffffffffffffffffffffffff160217905550808273ffffffffffffffffffffffffffffffffffffffff16600073ffffffffffffffffffffffffffffffffffffffff167fddf252ad1be2c89b69c2b068fc378daa952ba7f163c4a11628f55a4df523b3ef60405160405180910390a461248a60008383600161282a565b5050565b612497826127e3565b6124d6576040517f08c379a00000000000000000000000000000000000000000000000000000000081526004016124cd90613f04565b60405180910390fd5b806006600084815260200190815260200160002090816124f691906140d0565b507ff8e1a15aba9398e019f0b49df1a4fde98ee17ae345cb5f6b5e2c27f5033e8ce7826040516125269190612f13565b60405180910390a15050565b8173ffffffffffffffffffffffffffffffffffffffff168373ffffffffffffffffffffffffffffffffffffffff16036125a0576040517f08c379a0000000000000000000000000000000000000000000000000000000008152600401612597906141ee565b60405180910390fd5b80600560008573ffffffffffffffffffffffffffffffffffffffff1673ffffffffffffffffffffffffffffffffffffffff16815260200190815260200160002060008473ffffffffffffffffffffffffffffffffffffffff1673ffffffffffffffffffffffffffffffffffffffff16815260200190815260200160002060006101000a81548160ff0219169083151502179055508173ffffffffffffffffffffffffffffffffffffffff168373ffffffffffffffffffffffffffffffffffffffff167f17307eab39ab6107e8899845ad3d59bd9653f200f220920489ca2b5937696c31836040516126919190612d0c565b60405180910390a3505050565b6126a9848484611f3b565b6126b584848484612830565b6126f4576040517f08c379a00000000000000000000000000000000000000000000000000000000081526004016126eb90614280565b60405180910390fd5b50505050565b606060405180602001604052806000815250905090565b606061271c82611d9a565b60006127266126fa565b905060008151116127465760405180602001604052806000815250612771565b80612750846129b7565b604051602001612761929190613be0565b6040516020818303038152906040525b915050919050565b60007f01ffc9a7000000000000000000000000000000000000000000000000000000007bffffffffffffffffffffffffffffffffffffffffffffffffffffffff1916827bffffffffffffffffffffffffffffffffffffffffffffffffffffffff1916149050919050565b60008073ffffffffffffffffffffffffffffffffffffffff1661280583612234565b73ffffffffffffffffffffffffffffffffffffffff1614159050919050565b50505050565b50505050565b60006128518473ffffffffffffffffffffffffffffffffffffffff16612a85565b156129aa578373ffffffffffffffffffffffffffffffffffffffff1663150b7a0261287a611de5565b8786866040518563ffffffff1660e01b815260040161289c94939291906142f5565b6020604051808303816000875af19250505080156128d857506040513d601f19601f820116820180604052508101906128d59190614356565b60015b61295a573d8060008114612908576040519150601f19603f3d011682016040523d82523d6000602084013e61290d565b606091505b506000815103612952576040517f08c379a000000000000000000000000000000000000000000000000000000000815260040161294990614280565b60405180910390fd5b805181602001fd5b63150b7a0260e01b7bffffffffffffffffffffffffffffffffffffffffffffffffffffffff1916817bffffffffffffffffffffffffffffffffffffffffffffffffffffffff1916149150506129af565b600190505b949350505050565b6060600060016129c684612aa8565b01905060008167ffffffffffffffff8111156129e5576129e4613130565b5b6040519080825280601f01601f191660200182016040528015612a175781602001600182028036833780820191505090505b509050600082602001820190505b600115612a7a578080600190039150507f3031323334353637383961626364656600000000000000000000000000000000600a86061a8153600a8581612a6e57612a6d614383565b5b04945060008503612a25575b819350505050919050565b6000808273ffffffffffffffffffffffffffffffffffffffff163b119050919050565b600080600090507a184f03e93ff9f4daa797ed6e38ed64bf6a1f0100000000000000008310612b06577a184f03e93ff9f4daa797ed6e38ed64bf6a1f0100000000000000008381612afc57612afb614383565b5b0492506040810190505b6d04ee2d6d415b85acef81000000008310612b43576d04ee2d6d415b85acef81000000008381612b3957612b38614383565b5b0492506020810190505b662386f26fc100008310612b7257662386f26fc100008381612b6857612b67614383565b5b0492506010810190505b6305f5e1008310612b9b576305f5e1008381612b9157612b90614383565b5b0492506008810190505b6127108310612bc0576127108381612bb657612bb5614383565b5b0492506004810190505b60648310612be35760648381612bd957612bd8614383565b5b0492506002810190505b600a8310612bf2576001810190505b80915050919050565b6040518060a0016040528060008152602001600073ffffffffffffffffffffffffffffffffffffffff168152602001600073ffffffffffffffffffffffffffffffffffffffff168152602001600081526020016000151581525090565b6000604051905090565b600080fd5b600080fd5b60007fffffffff0000000000000000000000000000000000000000000000000000000082169050919050565b612ca181612c6c565b8114612cac57600080fd5b50565b600081359050612cbe81612c98565b92915050565b600060208284031215612cda57612cd9612c62565b5b6000612ce884828501612caf565b91505092915050565b60008115159050919050565b612d0681612cf1565b82525050565b6000602082019050612d216000830184612cfd565b92915050565b600081519050919050565b600082825260208201905092915050565b60005b83811015612d61578082015181840152602081019050612d46565b60008484015250505050565b6000601f19601f8301169050919050565b6000612d8982612d27565b612d938185612d32565b9350612da3818560208601612d43565b612dac81612d6d565b840191505092915050565b60006020820190508181036000830152612dd18184612d7e565b905092915050565b6000819050919050565b612dec81612dd9565b8114612df757600080fd5b50565b600081359050612e0981612de3565b92915050565b600060208284031215612e2557612e24612c62565b5b6000612e3384828501612dfa565b91505092915050565b600073ffffffffffffffffffffffffffffffffffffffff82169050919050565b6000612e6782612e3c565b9050919050565b612e7781612e5c565b82525050565b6000602082019050612e926000830184612e6e565b92915050565b612ea181612e5c565b8114612eac57600080fd5b50565b600081359050612ebe81612e98565b92915050565b60008060408385031215612edb57612eda612c62565b5b6000612ee985828601612eaf565b9250506020612efa85828601612dfa565b9150509250929050565b612f0d81612dd9565b82525050565b6000602082019050612f286000830184612f04565b92915050565b600080600060608486031215612f4757612f46612c62565b5b6000612f5586828701612eaf565b9350506020612f6686828701612eaf565b9250506040612f7786828701612dfa565b9150509250925092565b600081519050919050565b600082825260208201905092915050565b6000819050602082019050919050565b612fb681612dd9565b82525050565b6000612fc782612e3c565b9050919050565b612fd781612fbc565b82525050565b612fe681612cf1565b82525050565b60a0820160008201516130026000850182612fad565b5060208201516130156020850182612fce565b5060408201516130286040850182612fce565b50606082015161303b6060850182612fad565b50608082015161304e6080850182612fdd565b50505050565b60006130608383612fec565b60a08301905092915050565b6000602082019050919050565b600061308482612f81565b61308e8185612f8c565b935061309983612f9d565b8060005b838110156130ca5781516130b18882613054565b97506130bc8361306c565b92505060018101905061309d565b5085935050505092915050565b600060208201905081810360008301526130f18184613079565b905092915050565b60006020828403121561310f5761310e612c62565b5b600061311d84828501612eaf565b91505092915050565b600080fd5b600080fd5b7f4e487b7100000000000000000000000000000000000000000000000000000000600052604160045260246000fd5b61316882612d6d565b810181811067ffffffffffffffff8211171561318757613186613130565b5b80604052505050565b600061319a612c58565b90506131a6828261315f565b919050565b600067ffffffffffffffff8211156131c6576131c5613130565b5b6131cf82612d6d565b9050602081019050919050565b82818337600083830152505050565b60006131fe6131f9846131ab565b613190565b90508281526020810184848401111561321a5761321961312b565b5b6132258482856131dc565b509392505050565b600082601f83011261324257613241613126565b5b81356132528482602086016131eb565b91505092915050565b6000806040838503121561327257613271612c62565b5b600083013567ffffffffffffffff8111156132905761328f612c67565b5b61329c8582860161322d565b92505060206132ad85828601612dfa565b9150509250929050565b6132c081612cf1565b81146132cb57600080fd5b50565b6000813590506132dd816132b7565b92915050565b600080604083850312156132fa576132f9612c62565b5b600061330885828601612eaf565b9250506020613319858286016132ce565b9150509250929050565b600067ffffffffffffffff82111561333e5761333d613130565b5b61334782612d6d565b9050602081019050919050565b600061336761336284613323565b613190565b9050828152602081018484840111156133835761338261312b565b5b61338e8482856131dc565b509392505050565b600082601f8301126133ab576133aa613126565b5b81356133bb848260208601613354565b91505092915050565b600080600080608085870312156133de576133dd612c62565b5b60006133ec87828801612eaf565b94505060206133fd87828801612eaf565b935050604061340e87828801612dfa565b925050606085013567ffffffffffffffff81111561342f5761342e612c67565b5b61343b87828801613396565b91505092959194509250565b6000806040838503121561345e5761345d612c62565b5b600061346c85828601612dfa565b925050602061347d85828601612dfa565b9150509250929050565b6000806040838503121561349e5761349d612c62565b5b60006134ac85828601612eaf565b92505060206134bd85828601612eaf565b9150509250929050565b6134d081612fbc565b82525050565b600060a0820190506134eb6000830188612f04565b6134f860208301876134c7565b61350560408301866134c7565b6135126060830185612f04565b61351f6080830184612cfd565b9695505050505050565b7f4e487b7100000000000000000000000000000000000000000000000000000000600052602260045260246000fd5b6000600282049050600182168061357057607f821691505b60208210810361358357613582613529565b5b50919050565b7f4552433732313a20617070726f76616c20746f2063757272656e74206f776e6560008201527f7200000000000000000000000000000000000000000000000000000000000000602082015250565b60006135e5602183612d32565b91506135f082613589565b604082019050919050565b60006020820190508181036000830152613614816135d8565b9050919050565b7f4552433732313a20617070726f76652063616c6c6572206973206e6f7420746f60008201527f6b656e206f776e6572206f7220617070726f76656420666f7220616c6c000000602082015250565b6000613677603d83612d32565b91506136828261361b565b604082019050919050565b600060208201905081810360008301526136a68161366a565b9050919050565b7f4552433732313a2063616c6c6572206973206e6f7420746f6b656e206f776e6560008201527f72206f7220617070726f76656400000000000000000000000000000000000000602082015250565b6000613709602d83612d32565b9150613714826136ad565b604082019050919050565b60006020820190508181036000830152613738816136fc565b9050919050565b7f4e487b7100000000000000000000000000000000000000000000000000000000600052601160045260246000fd5b600061377982612dd9565b915061378483612dd9565b925082820390508181111561379c5761379b61373f565b5b92915050565b7f4e487b7100000000000000000000000000000000000000000000000000000000600052603260045260246000fd5b60006137dc82612dd9565b91506137e783612dd9565b92508282019050808211156137ff576137fe61373f565b5b92915050565b600061381082612dd9565b91507fffffffffffffffffffffffffffffffffffffffffffffffffffffffffffffffff82036138425761384161373f565b5b600182019050919050565b7f54686520616d6f756e742073656e7420646f6573206e6f74206d61746368207460008201527f6865207072696365000000000000000000000000000000000000000000000000602082015250565b60006138a9602883612d32565b91506138b48261384d565b604082019050919050565b600060208201905081810360008301526138d88161389c565b9050919050565b60006060820190506138f46000830186612e6e565b6139016020830185612e6e565b61390e6040830184612f04565b949350505050565b7f4552433732313a20696e76616c696420746f6b656e2049440000000000000000600082015250565b600061394c601883612d32565b915061395782613916565b602082019050919050565b6000602082019050818103600083015261397b8161393f565b9050919050565b7f4552433732313a2061646472657373207a65726f206973206e6f74206120766160008201527f6c6964206f776e65720000000000000000000000000000000000000000000000602082015250565b60006139de602983612d32565b91506139e982613982565b604082019050919050565b60006020820190508181036000830152613a0d816139d1565b9050919050565b7f5072696365206d757374206265206174206c6561737420312077656900000000600082015250565b6000613a4a601c83612d32565b9150613a5582613a14565b602082019050919050565b60006020820190508181036000830152613a7981613a3d565b9050919050565b7f506c656173652073656e6420746865206578616374206c697374696e6720707260008201527f69636520616d6f756e7400000000000000000000000000000000000000000000602082015250565b6000613adc602a83612d32565b9150613ae782613a80565b604082019050919050565b60006020820190508181036000830152613b0b81613acf565b9050919050565b7f43616c6c6572206973206e6f7420746865206d61726b6574706c616365206f7760008201527f6e65720000000000000000000000000000000000000000000000000000000000602082015250565b6000613b6e602383612d32565b9150613b7982613b12565b604082019050919050565b60006020820190508181036000830152613b9d81613b61565b9050919050565b600081905092915050565b6000613bba82612d27565b613bc48185613ba4565b9350613bd4818560208601612d43565b80840191505092915050565b6000613bec8285613baf565b9150613bf88284613baf565b91508190509392505050565b7f4f6e6c792074686520746f6b656e206f776e657220697320616c6c6f7765642060008201527f746f20726573656c6c2069740000000000000000000000000000000000000000602082015250565b6000613c60602c83612d32565b9150613c6b82613c04565b604082019050919050565b60006020820190508181036000830152613c8f81613c53565b9050919050565b7f4552433732313a207472616e736665722066726f6d20696e636f72726563742060008201527f6f776e6572000000000000000000000000000000000000000000000000000000602082015250565b6000613cf2602583612d32565b9150613cfd82613c96565b604082019050919050565b60006020820190508181036000830152613d2181613ce5565b9050919050565b7f4552433732313a207472616e7366657220746f20746865207a65726f2061646460008201527f7265737300000000000000000000000000000000000000000000000000000000602082015250565b6000613d84602483612d32565b9150613d8f82613d28565b604082019050919050565b60006020820190508181036000830152613db381613d77565b9050919050565b7f4552433732313a206d696e7420746f20746865207a65726f2061646472657373600082015250565b6000613df0602083612d32565b9150613dfb82613dba565b602082019050919050565b60006020820190508181036000830152613e1f81613de3565b9050919050565b7f4552433732313a20746f6b656e20616c7265616479206d696e74656400000000600082015250565b6000613e5c601c83612d32565b9150613e6782613e26565b602082019050919050565b60006020820190508181036000830152613e8b81613e4f565b9050919050565b7f45524337323155524953746f726167653a2055524920736574206f66206e6f6e60008201527f6578697374656e7420746f6b656e000000000000000000000000000000000000602082015250565b6000613eee602e83612d32565b9150613ef982613e92565b604082019050919050565b60006020820190508181036000830152613f1d81613ee1565b9050919050565b60008190508160005260206000209050919050565b60006020601f8301049050919050565b600082821b905092915050565b600060088302613f867fffffffffffffffffffffffffffffffffffffffffffffffffffffffffffffffff82613f49565b613f908683613f49565b95508019841693508086168417925050509392505050565b6000819050919050565b6000613fcd613fc8613fc384612dd9565b613fa8565b612dd9565b9050919050565b6000819050919050565b613fe783613fb2565b613ffb613ff382613fd4565b848454613f56565b825550505050565b600090565b614010614003565b61401b818484613fde565b505050565b5b8181101561403f57614034600082614008565b600181019050614021565b5050565b601f8211156140845761405581613f24565b61405e84613f39565b8101602085101561406d578190505b61408161407985613f39565b830182614020565b50505b505050565b600082821c905092915050565b60006140a760001984600802614089565b1980831691505092915050565b60006140c08383614096565b9150826002028217905092915050565b6140d982612d27565b67ffffffffffffffff8111156140f2576140f1613130565b5b6140fc8254613558565b614107828285614043565b600060209050601f83116001811461413a5760008415614128578287015190505b61413285826140b4565b86555061419a565b601f19841661414886613f24565b60005b828110156141705784890151825560018201915060208501945060208101905061414b565b8683101561418d5784890151614189601f891682614096565b8355505b6001600288020188555050505b505050505050565b7f4552433732313a20617070726f766520746f2063616c6c657200000000000000600082015250565b60006141d8601983612d32565b91506141e3826141a2565b602082019050919050565b60006020820190508181036000830152614207816141cb565b9050919050565b7f4552433732313a207472616e7366657220746f206e6f6e20455243373231526560008201527f63656976657220696d706c656d656e7465720000000000000000000000000000602082015250565b600061426a603283612d32565b91506142758261420e565b604082019050919050565b600060208201905081810360008301526142998161425d565b9050919050565b600081519050919050565b600082825260208201905092915050565b60006142c7826142a0565b6142d181856142ab565b93506142e1818560208601612d43565b6142ea81612d6d565b840191505092915050565b600060808201905061430a6000830187612e6e565b6143176020830186612e6e565b6143246040830185612f04565b818103606083015261433681846142bc565b905095945050505050565b60008151905061435081612c98565b92915050565b60006020828403121561436c5761436b612c62565b5b600061437a84828501614341565b91505092915050565b7f4e487b7100000000000000000000000000000000000000000000000000000000600052601260045260246000fdfea26469706673582212203766239ec28767a59f06b1c3bf86b0774a4433130c502e2bdb04d1077740969564736f6c63430008120033",
  "linkReferences": {},
  "deployedLinkReferences": {}
}